000000020162040100000     2453040004124 0702 9174 519400000527USA TEST                    USA TEST                    USA TEST                                                                                                                                                              USA TEST                                ENTRY POINT BOULEVARD                                                           LINCOLN COUNTY                AL12345     272101709413100021-340403Compa1_3_Company_Employee                                                            ABC 123                                 New York            NY12345    840                                                                                                                                                                                                                                                                              
000000030162040100000     2453040004124 0702 6877 722000000527USA TEST                    ARGENTINA                   USA TEST                                                                                                                                                              USA TEST                                ENTRY POINT BOULEVARD                                                           LINCOLN COUNTY                AL12345     272101709421100022-200703Compa1_3_Company_Employee                                                            ABC 123                                 New York            NY12345    840                                                                                                                                                                                                                                                                              
000000040162040100000     2453040004124 0702 7352 624000000527USA TEST                    VENEZUELA                   USA TEST                                                                                                                                                              USA TEST                                ENTRY POINT BOULEVARD                                                           LINCOLN COUNTY                AL12345     272101709439100020-430503Compa0_3_Company_Employee                                                            ABC 123                                 New York            NY12345    840                                                                                                                                                                                                                                                                              
000000020162040100000     2453040004124 0702 9174 519400000527USA TEST                    SLOVAKIA                    USA TEST                                                                                                                                                              USA TEST                                ENTRY POINT BOULEVARD                                                           LINCOLN COUNTY                AL12345     272101709413100021-340403Compa1_3_Company_Employee                                                            ABC 123                                 New York            NY12345    840                                                                                                                                                                                                                                                                              
000000030162040100000     2453040004124 0702 6877 722000000527USA TEST                    GILBERTO                    USA TEST                                                                                                                                                              USA TEST                                ENTRY POINT BOULEVARD                                                           LINCOLN COUNTY                AL12345     272101709421100022-200703Compa1_3_Company_Employee                                                            ABC 123                                 New York            NY12345    840                                                                                                                                                                                                                                                                              
000000040162040100000     2453040004124 0702 7352 624000000527USA TEST                    RADOVAN                     USA TEST                                                                                                                                                              USA TEST                                ENTRY POINT BOULEVARD                                                           LINCOLN COUNTY                AL12345     272101709439100020-430503Compa1_1_Company_Employee                                                            ABC 123                                 New York            NY12345    840                                                                                                                                                                                                                                                                              
000000020162040100000     2453040004124 0702 9174 519400000527USA TEST                    PIERRE                      USA TEST                                                                                                                                                              USA TEST                                ENTRY POINT BOULEVARD                                                           LINCOLN COUNTY                AL12345     272101709413100021-340403Compa1_1_Company_Employee                                                            ABC 123                                 New York            NY12345    840                                                                                                                                                                                                                                                                              
000000030162040100000     2453040004124 0702 6877 722000000527USA TEST                    VENEZ                       USA TEST                                                                                                                                                              USA TEST                                ENTRY POINT BOULEVARD                                                           LINCOLN COUNTY                AL12345     272101709421100022-200703Compa1_2_Company_Employee                                                            ABC 123                                 New York            NY12345    840                                                                                                                                                                                                                                                                              
000000040162040100000     2453040004124 0702 7352 624000000527USA TEST                    ENGLAND                     USA TEST                                                                                                                                                              USA TEST                                ENTRY POINT BOULEVARD                                                           LINCOLN COUNTY                AL12345     272101709439100020-430503Compa1_2_Company_Employee                                                            ABC 123                                 New York            NY12345    840                                                                                                                                                                                                                                                                              
000000020162040100000     2453040004124 0702 9174 519400000527USA TEST                    USA TEST                    USA TEST                                                                                                                                                              USA TEST                                ENTRY POINT BOULEVARD                                                           LINCOLN COUNTY                AL12345     272101709413100021-340402Compa1_2_Company_Employee                                                            ABC 123                                 New York            NY12345    840                                                                                                                                                                                                                                                                              
000000030162040100000     2453040004124 0702 6877 722000000527USA TEST                    USA TEST                    USA TEST                                                                                                                                                              USA TEST                                ENTRY POINT BOULEVARD                                                           LINCOLN COUNTY                AL12345     272101709421100022-200702Compa1_2_Company_Employee                                                            ABC 123                                 New York            NY12345    840                                                                                                                                                                                                                                                                              
000000040162040100000     2453040004124 0702 7352 624000000527USA TEST                    USA TEST                    USA TEST                                                                                                                                                              USA TEST                                ENTRY POINT BOULEVARD                                                           LINCOLN COUNTY                AL12345     272101709439100020-430502Compa1_2_Company_Employee                                                            ABC 123                                 New York            NY12345    840                                                                                                                                                                                                                                                                              
000000020162040100000     2453040004124 0702 9174 519400000527USA TEST                    USA TEST                    USA TEST                                                                                                                                                              USA TEST                                ENTRY POINT BOULEVARD                                                           LINCOLN COUNTY                AL12345     272101709413100021-340404Compa1_2_Company4_Employee4                                                          ABC 1236                                New York            NY12345    840                                                                                                                                                                                                                                                                              
000000030162040100000     2453040004124 0702 6877 722000000527USA TEST                    VENEZ                       USA TEST                                                                                                                                                              USA TEST                                ENTRY POINT BOULEVARD                                                           LINCOLN COUNTY                AL12345     272101709421100022-200705Compa1_2_Company5_Employee5                                                          ABC 1235                                New York            NY12345    840                                                                                                                                                                                                                                                                              
000000040162040100000     2453040004124 0702 7352 624000000527USA TEST                    USA TEST                    USA TEST                                                                                                                                                              USA TEST                                ENTRY POINT BOULEVARD                                                           LINCOLN COUNTY                AL12345     272101709439100020-430506Compa1_2_Company6_Employee6                                                          ABC 1234                                New York            NY12345    840                                                                                                                                                                                                                                                                              
000000020162040100000     2453040004124 0702 9174 519400000527USA TEST                    USA TEST                    USA TEST                                                                                                                                                              USA TEST                                ENTRY POINT BOULEVARD                                                           LINCOLN COUNTY                AL12345     272101709413100021-340403Compa1_3_Company_Employee                                                            ABC 123                                 New York            NY12345    840                                                                                                                                                                                                                                                                              
000000030162040100000     2453040004124 0702 6877 722000000527USA TEST                    ARGENTINA                   USA TEST                                                                                                                                                              USA TEST                                ENTRY POINT BOULEVARD                                                           LINCOLN COUNTY                AL12345     272101709421100022-200703Compa1_3_Company_Employee                                                            ABC 123                                 New York            NY12345    840                                                                                                                                                                                                                                                                              
000000040162040100000     2453040004124 0702 7352 624000000527USA TEST                    VENEZUELA                   USA TEST                                                                                                                                                              USA TEST                                ENTRY POINT BOULEVARD                                                           LINCOLN COUNTY                AL12345     272101709439100020-430503Compa1_3_Company_Employee                                                            ABC 123                                 New York            NY12345    840                                                                                                                                                                                                                                                                              
000000020162040100000     2453040004124 0702 9174 519400000527USA TEST                    SLOVAKIA                    USA TEST                                                                                                                                                              USA TEST                                ENTRY POINT BOULEVARD                                                           LINCOLN COUNTY                AL12345     272101709413100021-340403Compa1_3_Company_Employee                                                            ABC 123                                 New York            NY12345    840                                                                                                                                                                                                                                                                              
000000030162040100000     2453040004124 0702 6877 722000000527USA TEST                    GILBERTO                    USA TEST                                                                                                                                                              USA TEST                                ENTRY POINT BOULEVARD                                                           LINCOLN COUNTY                AL12345     272101709421100022-200703Compa0_3_Company_Employee                                                            ABC 123                                 New York            NY12345    840                                                                                                                                                                                                                                                                              
000000040162040100000     2453040004124 0702 7352 624000000527USA TEST                    RADOVAN                     USA TEST                                                                                                                                                              USA TEST                                ENTRY POINT BOULEVARD                                                           LINCOLN COUNTY                AL12345     272101709439100020-430503Compa1_1_Company_Employee                                                            ABC 123                                 New York            NY12345    840                                                                                                                                                                                                                                                                              
000000020162040100000     2453040004124 0702 9174 519400000527USA TEST                    PIERRE                      USA TEST                                                                                                                                                              USA TEST                                ENTRY POINT BOULEVARD                                                           LINCOLN COUNTY                AL12345     272101709413100021-340403Compa1_1_Company_Employee                                                            ABC 123                                 New York            NY12345    840                                                                                                                                                                                                                                                                              
000000030162040100000     2453040004124 0702 6877 722000000527USA TEST                    VENEZ                       USA TEST                                                                                                                                                              USA TEST                                ENTRY POINT BOULEVARD                                                           LINCOLN COUNTY                AL12345     272101709421100022-200703Compa1_2_Company_Employee                                                            ABC 123                                 New York            NY12345    840                                                                                                                                                                                                                                                                              
000000040162040100000     2453040004124 0702 7352 624000000527USA TEST                    ENGLAND                     USA TEST                                                                                                                                                              USA TEST                                ENTRY POINT BOULEVARD                                                           LINCOLN COUNTY                AL12345     272101709439100020-430503Compa1_2_Company_Employee                                                            ABC 123                                 New York            NY12345    840                                                                                                                                                                                                                                                                              
000000020162040100000     2453040004124 0702 9174 519400000527USA TEST                    USA TEST                    USA TEST                                                                                                                                                              USA TEST                                ENTRY POINT BOULEVARD                                                           LINCOLN COUNTY                AL12345     272101709413100021-340402Compa1_2_Company_Employee                                                            ABC 123                                 New York            NY12345    840                                                                                                                                                                                                                                                                              
000000030162040100000     2453040004124 0702 6877 722000000527USA TEST                    USA TEST                    USA TEST                                                                                                                                                              USA TEST                                ENTRY POINT BOULEVARD                                                           LINCOLN COUNTY                AL12345     272101709421100022-200702Compa1_2_Company_Employee                                                            ABC 123                                 New York            NY12345    840                                                                                                                                                                                                                                                                              
000000040162040100000     2453040004124 0702 7352 624000000527USA TEST                    USA TEST                    USA TEST                                                                                                                                                              USA TEST                                ENTRY POINT BOULEVARD                                                           LINCOLN COUNTY                AL12345     272101709439100020-430502Compa1_2_Company_Employee                                                            ABC 123                                 New York            NY12345    840                                                                                                                                                                                                                                                                              
000000020162040100000     2453040004124 0702 9174 519400000527USA TEST                    USA TEST                    USA TEST                                                                                                                                                              USA TEST                                ENTRY POINT BOULEVARD                                                           LINCOLN COUNTY                AL12345     272101709413100021-340404Compa1_2_Company4_Employee4                                                          ABC 1236                                New York            NY12345    840                                                                                                                                                                                                                                                                              
000000030162040100000     2453040004124 0702 6877 722000000527USA TEST                    VENEZ                       USA TEST                                                                                                                                                              USA TEST                                ENTRY POINT BOULEVARD                                                           LINCOLN COUNTY                AL12345     272101709421100022-200705Compa1_2_Company5_Employee5                                                          ABC 1235                                New York            NY12345    840                                                                                                                                                                                                                                                                              
000000040162040100000     2453040004124 0702 7352 624000000527USA TEST                    USA TEST                    USA TEST                                                                                                                                                              USA TEST                                ENTRY POINT BOULEVARD                                                           LINCOLN COUNTY                AL12345     272101709439100020-430506Compa0_2_Company6_Employee6                                                          ABC 1234                                New York            NY12345    840                                                                                                                                                                                                                                                                              
000000020162040100000     2453040004124 0702 9174 519400000527USA TEST                    USA TEST                    USA TEST                                                                                                                                                              USA TEST                                ENTRY POINT BOULEVARD                                                           LINCOLN COUNTY                AL12345     272101709413100021-340403Compa1_3_Company_Employee                                                            ABC 123                                 New York            NY12345    840                                                                                                                                                                                                                                                                              
000000030162040100000     2453040004124 0702 6877 722000000527USA TEST                    ARGENTINA                   USA TEST                                                                                                                                                              USA TEST                                ENTRY POINT BOULEVARD                                                           LINCOLN COUNTY                AL12345     272101709421100022-200703Compa1_3_Company_Employee                                                            ABC 123                                 New York            NY12345    840                                                                                                                                                                                                                                                                              
000000040162040100000     2453040004124 0702 7352 624000000527USA TEST                    VENEZUELA                   USA TEST                                                                                                                                                              USA TEST                                ENTRY POINT BOULEVARD                                                           LINCOLN COUNTY                AL12345     272101709439100020-430503Compa0_3_Company_Employee                                                            ABC 123                                 New York            NY12345    840                                                                                                                                                                                                                                                                              
000000020162040100000     2453040004124 0702 9174 519400000527USA TEST                    SLOVAKIA                    USA TEST                                                                                                                                                              USA TEST                                ENTRY POINT BOULEVARD                                                           LINCOLN COUNTY                AL12345     272101709413100021-340403Compa1_3_Company_Employee                                                            ABC 123                                 New York            NY12345    840                                                                                                                                                                                                                                                                              
000000030162040100000     2453040004124 0702 6877 722000000527USA TEST                    GILBERTO                    USA TEST                                                                                                                                                              USA TEST                                ENTRY POINT BOULEVARD                                                           LINCOLN COUNTY                AL12345     272101709421100022-200703Compa1_3_Company_Employee                                                            ABC 123                                 New York            NY12345    840                                                                                                                                                                                                                                                                              
000000040162040100000     2453040004124 0702 7352 624000000527USA TEST                    RADOVAN                     USA TEST                                                                                                                                                              USA TEST                                ENTRY POINT BOULEVARD                                                           LINCOLN COUNTY                AL12345     272101709439100020-430503Compa1_1_Company_Employee                                                            ABC 123                                 New York            NY12345    840                                                                                                                                                                                                                                                                              
000000020162040100000     2453040004124 0702 9174 519400000527USA TEST                    PIERRE                      USA TEST                                                                                                                                                              USA TEST                                ENTRY POINT BOULEVARD                                                           LINCOLN COUNTY                AL12345     272101709413100021-340403Compa1_1_Company_Employee                                                            ABC 123                                 New York            NY12345    840                                                                                                                                                                                                                                                                              
000000030162040100000     2453040004124 0702 6877 722000000527USA TEST                    VENEZ                       USA TEST                                                                                                                                                              USA TEST                                ENTRY POINT BOULEVARD                                                           LINCOLN COUNTY                AL12345     272101709421100022-200703Compa1_2_Company_Employee                                                            ABC 123                                 New York            NY12345    840                                                                                                                                                                                                                                                                              
000000040162040100000     2453040004124 0702 7352 624000000527USA TEST                    ENGLAND                     USA TEST                                                                                                                                                              USA TEST                                ENTRY POINT BOULEVARD                                                           LINCOLN COUNTY                AL12345     272101709439100020-430503Compa1_2_Company_Employee                                                            ABC 123                                 New York            NY12345    840                                                                                                                                                                                                                                                                              
000000020162040100000     2453040004124 0702 9174 519400000527USA TEST                    USA TEST                    USA TEST                                                                                                                                                              USA TEST                                ENTRY POINT BOULEVARD                                                           LINCOLN COUNTY                AL12345     272101709413100021-340402Compa1_2_Company_Employee                                                            ABC 123                                 New York            NY12345    840                                                                                                                                                                                                                                                                              
000000030162040100000     2453040004124 0702 6877 722000000527USA TEST                    USA TEST                    USA TEST                                                                                                                                                              USA TEST                                ENTRY POINT BOULEVARD                                                           LINCOLN COUNTY                AL12345     272101709421100022-200702Compa1_2_Company_Employee                                                            ABC 123                                 New York            NY12345    840                                                                                                                                                                                                                                                                              
000000040162040100000     2453040004124 0702 7352 624000000527USA TEST                    USA TEST                    USA TEST                                                                                                                                                              USA TEST                                ENTRY POINT BOULEVARD                                                           LINCOLN COUNTY                AL12345     272101709439100020-430502Compa1_2_Company_Employee                                                            ABC 123                                 New York            NY12345    840                                                                                                                                                                                                                                                                              
000000020162040100000     2453040004124 0702 9174 519400000527USA TEST                    USA TEST                    USA TEST                                                                                                                                                              USA TEST                                ENTRY POINT BOULEVARD                                                           LINCOLN COUNTY                AL12345     272101709413100021-340404Compa1_2_Company4_Employee4                                                          ABC 1236                                New York            NY12345    840                                                                                                                                                                                                                                                                              
000000030162040100000     2453040004124 0702 6877 722000000527USA TEST                    VENEZ                       USA TEST                                                                                                                                                              USA TEST                                ENTRY POINT BOULEVARD                                                           LINCOLN COUNTY                AL12345     272101709421100022-200705Compa1_2_Company5_Employee5                                                          ABC 1235                                New York            NY12345    840                                                                                                                                                                                                                                                                              
000000040162040100000     2453040004124 0702 7352 624000000527USA TEST                    USA TEST                    USA TEST                                                                                                                                                              USA TEST                                ENTRY POINT BOULEVARD                                                           LINCOLN COUNTY                AL12345     272101709439100020-430506Compa1_2_Company6_Employee6                                                          ABC 1234                                New York            NY12345    840                                                                                                                                                                                                                                                                              
000000020162040100000     2453040004124 0702 9174 519400000527USA TEST                    USA TEST                    USA TEST                                                                                                                                                              USA TEST                                ENTRY POINT BOULEVARD                                                           LINCOLN COUNTY                AL12345     272101709413100021-340403Compa1_3_Company_Employee                                                            ABC 123                                 New York            NY12345    840                                                                                                                                                                                                                                                                              
000000030162040100000     2453040004124 0702 6877 722000000527USA TEST                    ARGENTINA                   USA TEST                                                                                                                                                              USA TEST                                ENTRY POINT BOULEVARD                                                           LINCOLN COUNTY                AL12345     272101709421100022-200703Compa1_3_Company_Employee                                                            ABC 123                                 New York            NY12345    840                                                                                                                                                                                                                                                                              
000000040162040100000     2453040004124 0702 7352 624000000527USA TEST                    VENEZUELA                   USA TEST                                                                                                                                                              USA TEST                                ENTRY POINT BOULEVARD                                                           LINCOLN COUNTY                AL12345     272101709439100020-430503Compa1_3_Company_Employee                                                            ABC 123                                 New York            NY12345    840                                                                                                                                                                                                                                                                              
000000020162040100000     2453040004124 0702 9174 519400000527USA TEST                    SLOVAKIA                    USA TEST                                                                                                                                                              USA TEST                                ENTRY POINT BOULEVARD                                                           LINCOLN COUNTY                AL12345     272101709413100021-340403Compa1_3_Company_Employee                                                            ABC 123                                 New York            NY12345    840                                                                                                                                                                                                                                                                              
000000030162040100000     2453040004124 0702 6877 722000000527USA TEST                    GILBERTO                    USA TEST                                                                                                                                                              USA TEST                                ENTRY POINT BOULEVARD                                                           LINCOLN COUNTY                AL12345     272101709421100022-200703Compa0_3_Company_Employee                                                            ABC 123                                 New York            NY12345    840                                                                                                                                                                                                                                                                              
000000040162040100000     2453040004124 0702 7352 624000000527USA TEST                    RADOVAN                     USA TEST                                                                                                                                                              USA TEST                                ENTRY POINT BOULEVARD                                                           LINCOLN COUNTY                AL12345     272101709439100020-430503Compa1_1_Company_Employee                                                            ABC 123                                 New York            NY12345    840                                                                                                                                                                                                                                                                              
000000020162040100000     2453040004124 0702 9174 519400000527USA TEST                    PIERRE                      USA TEST                                                                                                                                                              USA TEST                                ENTRY POINT BOULEVARD                                                           LINCOLN COUNTY                AL12345     272101709413100021-340403Compa1_1_Company_Employee                                                            ABC 123                                 New York            NY12345    840                                                                                                                                                                                                                                                                              
000000030162040100000     2453040004124 0702 6877 722000000527USA TEST                    VENEZ                       USA TEST                                                                                                                                                              USA TEST                                ENTRY POINT BOULEVARD                                                           LINCOLN COUNTY                AL12345     272101709421100022-200703Compa1_2_Company_Employee                                                            ABC 123                                 New York            NY12345    840                                                                                                                                                                                                                                                                              
000000040162040100000     2453040004124 0702 7352 624000000527USA TEST                    ENGLAND                     USA TEST                                                                                                                                                              USA TEST                                ENTRY POINT BOULEVARD                                                           LINCOLN COUNTY                AL12345     272101709439100020-430503Compa1_2_Company_Employee                                                            ABC 123                                 New York            NY12345    840                                                                                                                                                                                                                                                                              
000000020162040100000     2453040004124 0702 9174 519400000527USA TEST                    USA TEST                    USA TEST                                                                                                                                                              USA TEST                                ENTRY POINT BOULEVARD                                                           LINCOLN COUNTY                AL12345     272101709413100021-340402Compa1_2_Company_Employee                                                            ABC 123                                 New York            NY12345    840                                                                                                                                                                                                                                                                              
000000030162040100000     2453040004124 0702 6877 722000000527USA TEST                    USA TEST                    USA TEST                                                                                                                                                              USA TEST                                ENTRY POINT BOULEVARD                                                           LINCOLN COUNTY                AL12345     272101709421100022-200702Compa1_2_Company_Employee                                                            ABC 123                                 New York            NY12345    840                                                                                                                                                                                                                                                                              
000000040162040100000     2453040004124 0702 7352 624000000527USA TEST                    USA TEST                    USA TEST                                                                                                                                                              USA TEST                                ENTRY POINT BOULEVARD                                                           LINCOLN COUNTY                AL12345     272101709439100020-430502Compa1_2_Company_Employee                                                            ABC 123                                 New York            NY12345    840                                                                                                                                                                                                                                                                              
000000020162040100000     2453040004124 0702 9174 519400000527USA TEST                    USA TEST                    USA TEST                                                                                                                                                              USA TEST                                ENTRY POINT BOULEVARD                                                           LINCOLN COUNTY                AL12345     272101709413100021-340404Compa1_2_Company4_Employee4                                                          ABC 1236                                New York            NY12345    840                                                                                                                                                                                                                                                                              
000000030162040100000     2453040004124 0702 6877 722000000527USA TEST                    VENEZ                       USA TEST                                                                                                                                                              USA TEST                                ENTRY POINT BOULEVARD                                                           LINCOLN COUNTY                AL12345     272101709421100022-200705Compa1_2_Company5_Employee5                                                          ABC 1235                                New York            NY12345    840                                                                                                                                                                                                                                                                              
000000040162040100000     2453040004124 0702 7352 624000000527USA TEST                    USA TEST                    USA TEST                                                                                                                                                              USA TEST                                ENTRY POINT BOULEVARD                                                           LINCOLN COUNTY                AL12345     272101709439100020-430506Compa0_2_Company6_Employee6                                                          ABC 1234                                New York            NY12345    840                                                                                                                                                                                                                                                                              
000000020162040100000     2453040004124 0702 9174 519400000527USA TEST                    USA TEST                    USA TEST                                                                                                                                                              USA TEST                                ENTRY POINT BOULEVARD                                                           LINCOLN COUNTY                AL12345     272101709413100021-340403Compa1_3_Company_Employee                                                            ABC 123                                 New York            NY12345    840                                                                                                                                                                                                                                                                              
000000030162040100000     2453040004124 0702 6877 722000000527USA TEST                    ARGENTINA                   USA TEST                                                                                                                                                              USA TEST                                ENTRY POINT BOULEVARD                                                           LINCOLN COUNTY                AL12345     272101709421100022-200703Compa1_3_Company_Employee                                                            ABC 123                                 New York            NY12345    840                                                                                                                                                                                                                                                                              
000000040162040100000     2453040004124 0702 7352 624000000527USA TEST                    VENEZUELA                   USA TEST                                                                                                                                                              USA TEST                                ENTRY POINT BOULEVARD                                                           LINCOLN COUNTY                AL12345     272101709439100020-430503Compa0_3_Company_Employee                                                            ABC 123                                 New York            NY12345    840                                                                                                                                                                                                                                                                              
000000020162040100000     2453040004124 0702 9174 519400000527USA TEST                    SLOVAKIA                    USA TEST                                                                                                                                                              USA TEST                                ENTRY POINT BOULEVARD                                                           LINCOLN COUNTY                AL12345     272101709413100021-340403Compa1_3_Company_Employee                                                            ABC 123                                 New York            NY12345    840                                                                                                                                                                                                                                                                              
000000030162040100000     2453040004124 0702 6877 722000000527USA TEST                    GILBERTO                    USA TEST                                                                                                                                                              USA TEST                                ENTRY POINT BOULEVARD                                                           LINCOLN COUNTY                AL12345     272101709421100022-200703Compa1_3_Company_Employee                                                            ABC 123                                 New York            NY12345    840                                                                                                                                                                                                                                                                              
000000040162040100000     2453040004124 0702 7352 624000000527USA TEST                    RADOVAN                     USA TEST                                                                                                                                                              USA TEST                                ENTRY POINT BOULEVARD                                                           LINCOLN COUNTY                AL12345     272101709439100020-430503Compa1_1_Company_Employee                                                            ABC 123                                 New York            NY12345    840                                                                                                                                                                                                                                                                              
000000020162040100000     2453040004124 0702 9174 519400000527USA TEST                    PIERRE                      USA TEST                                                                                                                                                              USA TEST                                ENTRY POINT BOULEVARD                                                           LINCOLN COUNTY                AL12345     272101709413100021-340403Compa1_1_Company_Employee                                                            ABC 123                                 New York            NY12345    840                                                                                                                                                                                                                                                                              
000000030162040100000     2453040004124 0702 6877 722000000527USA TEST                    VENEZ                       USA TEST                                                                                                                                                              USA TEST                                ENTRY POINT BOULEVARD                                                           LINCOLN COUNTY                AL12345     272101709421100022-200703Compa1_2_Company_Employee                                                            ABC 123                                 New York            NY12345    840                                                                                                                                                                                                                                                                              
000000040162040100000     2453040004124 0702 7352 624000000527USA TEST                    ENGLAND                     USA TEST                                                                                                                                                              USA TEST                                ENTRY POINT BOULEVARD                                                           LINCOLN COUNTY                AL12345     272101709439100020-430503Compa1_2_Company_Employee                                                            ABC 123                                 New York            NY12345    840                                                                                                                                                                                                                                                                              
000000020162040100000     2453040004124 0702 9174 519400000527USA TEST                    USA TEST                    USA TEST                                                                                                                                                              USA TEST                                ENTRY POINT BOULEVARD                                                           LINCOLN COUNTY                AL12345     272101709413100021-340402Compa1_2_Company_Employee                                                            ABC 123                                 New York            NY12345    840                                                                                                                                                                                                                                                                              
000000030162040100000     2453040004124 0702 6877 722000000527USA TEST                    USA TEST                    USA TEST                                                                                                                                                              USA TEST                                ENTRY POINT BOULEVARD                                                           LINCOLN COUNTY                AL12345     272101709421100022-200702Compa1_2_Company_Employee                                                            ABC 123                                 New York            NY12345    840                                                                                                                                                                                                                                                                              
000000040162040100000     2453040004124 0702 7352 624000000527USA TEST                    USA TEST                    USA TEST                                                                                                                                                              USA TEST                                ENTRY POINT BOULEVARD                                                           LINCOLN COUNTY                AL12345     272101709439100020-430502Compa1_2_Company_Employee                                                            ABC 123                                 New York            NY12345    840                                                                                                                                                                                                                                                                              
000000020162040100000     2453040004124 0702 9174 519400000527USA TEST                    USA TEST                    USA TEST                                                                                                                                                              USA TEST                                ENTRY POINT BOULEVARD                                                           LINCOLN COUNTY                AL12345     272101709413100021-340404Compa1_2_Company4_Employee4                                                          ABC 1236                                New York            NY12345    840                                                                                                                                                                                                                                                                              
000000030162040100000     2453040004124 0702 6877 722000000527USA TEST                    VENEZ                       USA TEST                                                                                                                                                              USA TEST                                ENTRY POINT BOULEVARD                                                           LINCOLN COUNTY                AL12345     272101709421100022-200705Compa1_2_Company5_Employee5                                                          ABC 1235                                New York            NY12345    840                                                                                                                                                                                                                                                                              
000000040162040100000     2453040004124 0702 7352 624000000527USA TEST                    USA TEST                    USA TEST                                                                                                                                                              USA TEST                                ENTRY POINT BOULEVARD                                                           LINCOLN COUNTY                AL12345     272101709439100020-430506Compa1_2_Company6_Employee6                                                          ABC 1234                                New York            NY12345    840                                                                                                                                                                                                                                                                              
000000020162040100000     2453040004124 0702 9174 519400000527USA TEST                    USA TEST                    USA TEST                                                                                                                                                              USA TEST                                ENTRY POINT BOULEVARD                                                           LINCOLN COUNTY                AL12345     272101709413100021-340403Compa1_3_Company_Employee                                                            ABC 123                                 New York            NY12345    840                                                                                                                                                                                                                                                                              
000000030162040100000     2453040004124 0702 6877 722000000527USA TEST                    ARGENTINA                   USA TEST                                                                                                                                                              USA TEST                                ENTRY POINT BOULEVARD                                                           LINCOLN COUNTY                AL12345     272101709421100022-200703Compa1_3_Company_Employee                                                            ABC 123                                 New York            NY12345    840                                                                                                                                                                                                                                                                              
000000040162040100000     2453040004124 0702 7352 624000000527USA TEST                    VENEZUELA                   USA TEST                                                                                                                                                              USA TEST                                ENTRY POINT BOULEVARD                                                           LINCOLN COUNTY                AL12345     272101709439100020-430503Compa1_3_Company_Employee                                                            ABC 123                                 New York            NY12345    840                                                                                                                                                                                                                                                                              
000000020162040100000     2453040004124 0702 9174 519400000527USA TEST                    SLOVAKIA                    USA TEST                                                                                                                                                              USA TEST                                ENTRY POINT BOULEVARD                                                           LINCOLN COUNTY                AL12345     272101709413100021-340403Compa1_3_Company_Employee                                                            ABC 123                                 New York            NY12345    840                                                                                                                                                                                                                                                                              
000000030162040100000     2453040004124 0702 6877 722000000527USA TEST                    GILBERTO                    USA TEST                                                                                                                                                              USA TEST                                ENTRY POINT BOULEVARD                                                           LINCOLN COUNTY                AL12345     272101709421100022-200703Compa0_3_Company_Employee                                                            ABC 123                                 New York            NY12345    840                                                                                                                                                                                                                                                                              
000000040162040100000     2453040004124 0702 7352 624000000527USA TEST                    RADOVAN                     USA TEST                                                                                                                                                              USA TEST                                ENTRY POINT BOULEVARD                                                           LINCOLN COUNTY                AL12345     272101709439100020-430503Compa1_1_Company_Employee                                                            ABC 123                                 New York            NY12345    840                                                                                                                                                                                                                                                                              
000000020162040100000     2453040004124 0702 9174 519400000527USA TEST                    PIERRE                      USA TEST                                                                                                                                                              USA TEST                                ENTRY POINT BOULEVARD                                                           LINCOLN COUNTY                AL12345     272101709413100021-340403Compa1_1_Company_Employee                                                            ABC 123                                 New York            NY12345    840                                                                                                                                                                                                                                                                              
000000030162040100000     2453040004124 0702 6877 722000000527USA TEST                    VENEZ                       USA TEST                                                                                                                                                              USA TEST                                ENTRY POINT BOULEVARD                                                           LINCOLN COUNTY                AL12345     272101709421100022-200703Compa1_2_Company_Employee                                                            ABC 123                                 New York            NY12345    840                                                                                                                                                                                                                                                                              
000000040162040100000     2453040004124 0702 7352 624000000527USA TEST                    ENGLAND                     USA TEST                                                                                                                                                              USA TEST                                ENTRY POINT BOULEVARD                                                           LINCOLN COUNTY                AL12345     272101709439100020-430503Compa1_2_Company_Employee                                                            ABC 123                                 New York            NY12345    840                                                                                                                                                                                                                                                                              
000000020162040100000     2453040004124 0702 9174 519400000527USA TEST                    USA TEST                    USA TEST                                                                                                                                                              USA TEST                                ENTRY POINT BOULEVARD                                                           LINCOLN COUNTY                AL12345     272101709413100021-340402Compa1_2_Company_Employee                                                            ABC 123                                 New York            NY12345    840                                                                                                                                                                                                                                                                              
000000030162040100000     2453040004124 0702 6877 722000000527USA TEST                    USA TEST                    USA TEST                                                                                                                                                              USA TEST                                ENTRY POINT BOULEVARD                                                           LINCOLN COUNTY                AL12345     272101709421100022-200702Compa1_2_Company_Employee                                                            ABC 123                                 New York            NY12345    840                                                                                                                                                                                                                                                                              
000000040162040100000     2453040004124 0702 7352 624000000527USA TEST                    USA TEST                    USA TEST                                                                                                                                                              USA TEST                                ENTRY POINT BOULEVARD                                                           LINCOLN COUNTY                AL12345     272101709439100020-430502Compa1_2_Company_Employee                                                            ABC 123                                 New York            NY12345    840                                                                                                                                                                                                                                                                              
000000020162040100000     2453040004124 0702 9174 519400000527USA TEST                    USA TEST                    USA TEST                                                                                                                                                              USA TEST                                ENTRY POINT BOULEVARD                                                           LINCOLN COUNTY                AL12345     272101709413100021-340404Compa1_2_Company4_Employee4                                                          ABC 1236                                New York            NY12345    840                                                                                                                                                                                                                                                                              
000000030162040100000     2453040004124 0702 6877 722000000527USA TEST                    VENEZ                       USA TEST                                                                                                                                                              USA TEST                                ENTRY POINT BOULEVARD                                                           LINCOLN COUNTY                AL12345     272101709421100022-200705Compa1_2_Company5_Employee5                                                          ABC 1235                                New York            NY12345    840                                                                                                                                                                                                                                                                              
000000040162040100000     2453040004124 0702 7352 624000000527USA TEST                    USA TEST                    USA TEST                                                                                                                                                              USA TEST                                ENTRY POINT BOULEVARD                                                           LINCOLN COUNTY                AL12345     272101709439100020-430506Compa0_2_Company6_Employee6                                                          ABC 1234                                New York            NY12345    840                                                                                                                                                                                                                                                                              
000000020162040100000     2453040004124 0702 9174 519400000527USA TEST                    USA TEST                    USA TEST                                                                                                                                                              USA TEST                                ENTRY POINT BOULEVARD                                                           LINCOLN COUNTY                AL12345     272101709413100021-340403Compa1_3_Company_Employee                                                            ABC 123                                 New York            NY12345    840                                                                                                                                                                                                                                                                              
000000030162040100000     2453040004124 0702 6877 722000000527USA TEST                    ARGENTINA                   USA TEST                                                                                                                                                              USA TEST                                ENTRY POINT BOULEVARD                                                           LINCOLN COUNTY                AL12345     272101709421100022-200703Compa1_3_Company_Employee                                                            ABC 123                                 New York            NY12345    840                                                                                                                                                                                                                                                                              
000000040162040100000     2453040004124 0702 7352 624000000527USA TEST                    VENEZUELA                   USA TEST                                                                                                                                                              USA TEST                                ENTRY POINT BOULEVARD                                                           LINCOLN COUNTY                AL12345     272101709439100020-430503Compa0_3_Company_Employee                                                            ABC 123                                 New York            NY12345    840                                                                                                                                                                                                                                                                              
000000020162040100000     2453040004124 0702 9174 519400000527USA TEST                    SLOVAKIA                    USA TEST                                                                                                                                                              USA TEST                                ENTRY POINT BOULEVARD                                                           LINCOLN COUNTY                AL12345     272101709413100021-340403Compa1_3_Company_Employee                                                            ABC 123                                 New York            NY12345    840                                                                                                                                                                                                                                                                              
000000030162040100000     2453040004124 0702 6877 722000000527USA TEST                    GILBERTO                    USA TEST                                                                                                                                                              USA TEST                                ENTRY POINT BOULEVARD                                                           LINCOLN COUNTY                AL12345     272101709421100022-200703Compa1_3_Company_Employee                                                            ABC 123                                 New York            NY12345    840                                                                                                                                                                                                                                                                              
000000040162040100000     2453040004124 0702 7352 624000000527USA TEST                    RADOVAN                     USA TEST                                                                                                                                                              USA TEST                                ENTRY POINT BOULEVARD                                                           LINCOLN COUNTY                AL12345     272101709439100020-430503Compa1_1_Company_Employee                                                            ABC 123                                 New York            NY12345    840                                                                                                                                                                                                                                                                              
000000020162040100000     2453040004124 0702 9174 519400000527USA TEST                    PIERRE                      USA TEST                                                                                                                                                              USA TEST                                ENTRY POINT BOULEVARD                                                           LINCOLN COUNTY                AL12345     272101709413100021-340403Compa1_1_Company_Employee                                                            ABC 123                                 New York            NY12345    840                                                                                                                                                                                                                                                                              
000000030162040100000     2453040004124 0702 6877 722000000527USA TEST                    VENEZ                       USA TEST                                                                                                                                                              USA TEST                                ENTRY POINT BOULEVARD                                                           LINCOLN COUNTY                AL12345     272101709421100022-200703Compa1_2_Company_Employee                                                            ABC 123                                 New York            NY12345    840                                                                                                                                                                                                                                                                              
000000040162040100000     2453040004124 0702 7352 624000000527USA TEST                    ENGLAND                     USA TEST                                                                                                                                                              USA TEST                                ENTRY POINT BOULEVARD                                                           LINCOLN COUNTY                AL12345     272101709439100020-430503Compa1_2_Company_Employee                                                            ABC 123                                 New York            NY12345    840                                                                                                                                                                                                                                                                              
000000020162040100000     2453040004124 0702 9174 519400000527USA TEST                    USA TEST                    USA TEST                                                                                                                                                              USA TEST                                ENTRY POINT BOULEVARD                                                           LINCOLN COUNTY                AL12345     272101709413100021-340402Compa1_2_Company_Employee                                                            ABC 123                                 New York            NY12345    840                                                                                                                                                                                                                                                                              
000000030162040100000     2453040004124 0702 6877 722000000527USA TEST                    USA TEST                    USA TEST                                                                                                                                                              USA TEST                                ENTRY POINT BOULEVARD                                                           LINCOLN COUNTY                AL12345     272101709421100022-200702Compa1_2_Company_Employee                                                            ABC 123                                 New York            NY12345    840                                                                                                                                                                                                                                                                              
000000040162040100000     2453040004124 0702 7352 624000000527USA TEST                    USA TEST                    USA TEST                                                                                                                                                              USA TEST                                ENTRY POINT BOULEVARD                                                           LINCOLN COUNTY                AL12345     272101709439100020-430502Compa1_2_Company_Employee                                                            ABC 123                                 New York            NY12345    840                                                                                                                                                                                                                                                                              
000000020162040100000     2453040004124 0702 9174 519400000527USA TEST                    USA TEST                    USA TEST                                                                                                                                                              USA TEST                                ENTRY POINT BOULEVARD                                                           LINCOLN COUNTY                AL12345     272101709413100021-340404Compa1_2_Company4_Employee4                                                          ABC 1236                                New York            NY12345    840                                                                                                                                                                                                                                                                              
000000030162040100000     2453040004124 0702 6877 722000000527USA TEST                    VENEZ                       USA TEST                                                                                                                                                              USA TEST                                ENTRY POINT BOULEVARD                                                           LINCOLN COUNTY                AL12345     272101709421100022-200705Compa1_2_Company5_Employee5                                                          ABC 1235                                New York            NY12345    840                                                                                                                                                                                                                                                                              
000000040162040100000     2453040004124 0702 7352 624000000527USA TEST                    USA TEST                    USA TEST                                                                                                                                                              USA TEST                                ENTRY POINT BOULEVARD                                                           LINCOLN COUNTY                AL12345     272101709439100020-430506Compa1_2_Company6_Employee6                                                          ABC 1234                                New York            NY12345    840                                                                                                                                                                                                                                                                              
000000020162040100000     2453040004124 0702 9174 519400000527USA TEST                    USA TEST                    USA TEST                                                                                                                                                              USA TEST                                ENTRY POINT BOULEVARD                                                           LINCOLN COUNTY                AL12345     272101709413100021-340403Compa1_3_Company_Employee                                                            ABC 123                                 New York            NY12345    840                                                                                                                                                                                                                                                                              
000000030162040100000     2453040004124 0702 6877 722000000527USA TEST                    ARGENTINA                   USA TEST                                                                                                                                                              USA TEST                                ENTRY POINT BOULEVARD                                                           LINCOLN COUNTY                AL12345     272101709421100022-200703Compa1_3_Company_Employee                                                            ABC 123                                 New York            NY12345    840                                                                                                                                                                                                                                                                              
000000040162040100000     2453040004124 0702 7352 624000000527USA TEST                    VENEZUELA                   USA TEST                                                                                                                                                              USA TEST                                ENTRY POINT BOULEVARD                                                           LINCOLN COUNTY                AL12345     272101709439100020-430503Compa1_3_Company_Employee                                                            ABC 123                                 New York            NY12345    840                                                                                                                                                                                                                                                                              
000000020162040100000     2453040004124 0702 9174 519400000527USA TEST                    SLOVAKIA                    USA TEST                                                                                                                                                              USA TEST                                ENTRY POINT BOULEVARD                                                           LINCOLN COUNTY                AL12345     272101709413100021-340403Compa1_3_Company_Employee                                                            ABC 123                                 New York            NY12345    840                                                                                                                                                                                                                                                                              
000000030162040100000     2453040004124 0702 6877 722000000527USA TEST                    GILBERTO                    USA TEST                                                                                                                                                              USA TEST                                ENTRY POINT BOULEVARD                                                           LINCOLN COUNTY                AL12345     272101709421100022-200703Compa0_3_Company_Employee                                                            ABC 123                                 New York            NY12345    840                                                                                                                                                                                                                                                                              
